{"abi":[{"inputs":[],"stateMutability":"nonpayable","type":"constructor"},{"inputs":[],"name":"enter","outputs":[],"stateMutability":"payable","type":"function"},{"inputs":[],"name":"getPlayerScore","outputs":[{"internalType":"uint256","name":"","type":"uint256"}],"stateMutability":"view","type":"function"},{"inputs":[],"name":"getPlayers","outputs":[{"internalType":"address payable[]","name":"","type":"address[]"}],"stateMutability":"view","type":"function"},{"inputs":[],"name":"manager","outputs":[{"internalType":"address","name":"","type":"address"}],"stateMutability":"view","type":"function"},{"inputs":[],"name":"pickWinner","outputs":[],"stateMutability":"nonpayable","type":"function"},{"inputs":[{"internalType":"address","name":"","type":"address"}],"name":"playerScores","outputs":[{"internalType":"uint256","name":"","type":"uint256"}],"stateMutability":"view","type":"function"},{"inputs":[{"internalType":"uint256","name":"","type":"uint256"}],"name":"players","outputs":[{"internalType":"address payable","name":"","type":"address"}],"stateMutability":"view","type":"function"},{"inputs":[],"name":"resetScores","outputs":[],"stateMutability":"nonpayable","type":"function"},{"inputs":[{"internalType":"uint256","name":"newScore","type":"uint256"}],"name":"saveBestScore","outputs":[],"stateMutability":"nonpayable","type":"function"}],"devdoc":{"kind":"dev","methods":{},"version":1},"evm":{"assembly":"    /* \"Flappy.sol\":62:1672  contract Flappy {... */\n  mstore(0x40, 0x80)\n    /* \"Flappy.sol\":214:267  constructor() {... */\n  callvalue\n  dup1\n  iszero\n  tag_1\n  jumpi\n  0x00\n  dup1\n  revert\ntag_1:\n  pop\n    /* \"Flappy.sol\":249:259  msg.sender */\n  caller\n    /* \"Flappy.sol\":239:246  manager */\n  0x00\n  dup1\n    /* \"Flappy.sol\":239:259  manager = msg.sender */\n  0x0100\n  exp\n  dup2\n  sload\n  dup2\n  0xffffffffffffffffffffffffffffffffffffffff\n  mul\n  not\n  and\n  swap1\n  dup4\n  0xffffffffffffffffffffffffffffffffffffffff\n  and\n  mul\n  or\n  swap1\n  sstore\n  pop\n    /* \"Flappy.sol\":62:1672  contract Flappy {... */\n  dataSize(sub_0)\n  dup1\n  dataOffset(sub_0)\n  0x00\n  codecopy\n  0x00\n  return\nstop\n\nsub_0: assembly {\n        /* \"Flappy.sol\":62:1672  contract Flappy {... */\n      mstore(0x40, 0x80)\n      jumpi(tag_1, lt(calldatasize, 0x04))\n      shr(0xe0, calldataload(0x00))\n      dup1\n      0x62550ae1\n      gt\n      tag_11\n      jumpi\n      dup1\n      0x62550ae1\n      eq\n      tag_6\n      jumpi\n      dup1\n      0x8b5b9ccc\n      eq\n      tag_7\n      jumpi\n      dup1\n      0xdc21d020\n      eq\n      tag_8\n      jumpi\n      dup1\n      0xe97dcb62\n      eq\n      tag_9\n      jumpi\n      dup1\n      0xf71d96cb\n      eq\n      tag_10\n      jumpi\n      jump(tag_1)\n    tag_11:\n      dup1\n      0x1aa87659\n      eq\n      tag_2\n      jumpi\n      dup1\n      0x481c6a75\n      eq\n      tag_3\n      jumpi\n      dup1\n      0x547bf2d3\n      eq\n      tag_4\n      jumpi\n      dup1\n      0x5d495aea\n      eq\n      tag_5\n      jumpi\n    tag_1:\n      0x00\n      dup1\n      revert\n        /* \"Flappy.sol\":1312:1460  function resetScores() public {... */\n    tag_2:\n      callvalue\n      dup1\n      iszero\n      tag_12\n      jumpi\n      0x00\n      dup1\n      revert\n    tag_12:\n      pop\n      tag_13\n      tag_14\n      jump\t// in\n    tag_13:\n      stop\n        /* \"Flappy.sol\":85:107  address public manager */\n    tag_3:\n      callvalue\n      dup1\n      iszero\n      tag_15\n      jumpi\n      0x00\n      dup1\n      revert\n    tag_15:\n      pop\n      tag_16\n      tag_17\n      jump\t// in\n    tag_16:\n      mload(0x40)\n      tag_18\n      swap2\n      swap1\n      tag_19\n      jump\t// in\n    tag_18:\n      mload(0x40)\n      dup1\n      swap2\n      sub\n      swap1\n      return\n        /* \"Flappy.sol\":412:747  function saveBestScore(uint256 newScore) public {... */\n    tag_4:\n      callvalue\n      dup1\n      iszero\n      tag_20\n      jumpi\n      0x00\n      dup1\n      revert\n    tag_20:\n      pop\n      tag_21\n      0x04\n      dup1\n      calldatasize\n      sub\n      dup2\n      add\n      swap1\n      tag_22\n      swap2\n      swap1\n      tag_23\n      jump\t// in\n    tag_22:\n      tag_24\n      jump\t// in\n    tag_21:\n      stop\n        /* \"Flappy.sol\":865:1304  function pickWinner() public restricted {... */\n    tag_5:\n      callvalue\n      dup1\n      iszero\n      tag_25\n      jumpi\n      0x00\n      dup1\n      revert\n    tag_25:\n      pop\n      tag_26\n      tag_27\n      jump\t// in\n    tag_26:\n      stop\n        /* \"Flappy.sol\":153:201  mapping (address => uint256) public playerScores */\n    tag_6:\n      callvalue\n      dup1\n      iszero\n      tag_28\n      jumpi\n      0x00\n      dup1\n      revert\n    tag_28:\n      pop\n      tag_29\n      0x04\n      dup1\n      calldatasize\n      sub\n      dup2\n      add\n      swap1\n      tag_30\n      swap2\n      swap1\n      tag_31\n      jump\t// in\n    tag_30:\n      tag_32\n      jump\t// in\n    tag_29:\n      mload(0x40)\n      tag_33\n      swap2\n      swap1\n      tag_34\n      jump\t// in\n    tag_33:\n      mload(0x40)\n      dup1\n      swap2\n      sub\n      swap1\n      return\n        /* \"Flappy.sol\":1567:1669  function getPlayers() public view returns (address payable[] memory) {... */\n    tag_7:\n      callvalue\n      dup1\n      iszero\n      tag_35\n      jumpi\n      0x00\n      dup1\n      revert\n    tag_35:\n      pop\n      tag_36\n      tag_37\n      jump\t// in\n    tag_36:\n      mload(0x40)\n      tag_38\n      swap2\n      swap1\n      tag_39\n      jump\t// in\n    tag_38:\n      mload(0x40)\n      dup1\n      swap2\n      sub\n      swap1\n      return\n        /* \"Flappy.sol\":755:853  function getPlayerScore() public view returns (uint256) {... */\n    tag_8:\n      callvalue\n      dup1\n      iszero\n      tag_40\n      jumpi\n      0x00\n      dup1\n      revert\n    tag_40:\n      pop\n      tag_41\n      tag_42\n      jump\t// in\n    tag_41:\n      mload(0x40)\n      tag_43\n      swap2\n      swap1\n      tag_34\n      jump\t// in\n    tag_43:\n      mload(0x40)\n      dup1\n      swap2\n      sub\n      swap1\n      return\n        /* \"Flappy.sol\":279:404  function enter() public payable {... */\n    tag_9:\n      tag_44\n      tag_45\n      jump\t// in\n    tag_44:\n      stop\n        /* \"Flappy.sol\":114:146  address payable[] public players */\n    tag_10:\n      callvalue\n      dup1\n      iszero\n      tag_46\n      jumpi\n      0x00\n      dup1\n      revert\n    tag_46:\n      pop\n      tag_47\n      0x04\n      dup1\n      calldatasize\n      sub\n      dup2\n      add\n      swap1\n      tag_48\n      swap2\n      swap1\n      tag_23\n      jump\t// in\n    tag_48:\n      tag_49\n      jump\t// in\n    tag_47:\n      mload(0x40)\n      tag_50\n      swap2\n      swap1\n      tag_51\n      jump\t// in\n    tag_50:\n      mload(0x40)\n      dup1\n      swap2\n      sub\n      swap1\n      return\n        /* \"Flappy.sol\":1312:1460  function resetScores() public {... */\n    tag_14:\n        /* \"Flappy.sol\":1358:1367  uint256 i */\n      0x00\n        /* \"Flappy.sol\":1353:1453  for (uint256 i = 0; i < players.length; i++) {... */\n    tag_53:\n        /* \"Flappy.sol\":1377:1384  players */\n      0x01\n        /* \"Flappy.sol\":1377:1391  players.length */\n      dup1\n      sload\n      swap1\n      pop\n        /* \"Flappy.sol\":1373:1374  i */\n      dup2\n        /* \"Flappy.sol\":1373:1391  i < players.length */\n      lt\n        /* \"Flappy.sol\":1353:1453  for (uint256 i = 0; i < players.length; i++) {... */\n      iszero\n      tag_54\n      jumpi\n        /* \"Flappy.sol\":1440:1441  0 */\n      0x00\n        /* \"Flappy.sol\":1413:1425  playerScores */\n      0x02\n        /* \"Flappy.sol\":1413:1437  playerScores[players[i]] */\n      0x00\n        /* \"Flappy.sol\":1426:1433  players */\n      0x01\n        /* \"Flappy.sol\":1434:1435  i */\n      dup5\n        /* \"Flappy.sol\":1426:1436  players[i] */\n      dup2\n      sload\n      dup2\n      lt\n      tag_56\n      jumpi\n      tag_57\n      tag_58\n      jump\t// in\n    tag_57:\n    tag_56:\n      swap1\n      0x00\n      mstore\n      keccak256(0x00, 0x20)\n      add\n      0x00\n      swap1\n      sload\n      swap1\n      0x0100\n      exp\n      swap1\n      div\n      0xffffffffffffffffffffffffffffffffffffffff\n      and\n        /* \"Flappy.sol\":1413:1437  playerScores[players[i]] */\n      0xffffffffffffffffffffffffffffffffffffffff\n      and\n      0xffffffffffffffffffffffffffffffffffffffff\n      and\n      dup2\n      mstore\n      0x20\n      add\n      swap1\n      dup2\n      mstore\n      0x20\n      add\n      0x00\n      keccak256\n        /* \"Flappy.sol\":1413:1441  playerScores[players[i]] = 0 */\n      dup2\n      swap1\n      sstore\n      pop\n        /* \"Flappy.sol\":1393:1396  i++ */\n      dup1\n      dup1\n      tag_60\n      swap1\n      tag_61\n      jump\t// in\n    tag_60:\n      swap2\n      pop\n      pop\n        /* \"Flappy.sol\":1353:1453  for (uint256 i = 0; i < players.length; i++) {... */\n      jump(tag_53)\n    tag_54:\n      pop\n        /* \"Flappy.sol\":1312:1460  function resetScores() public {... */\n      jump\t// out\n        /* \"Flappy.sol\":85:107  address public manager */\n    tag_17:\n      0x00\n      dup1\n      sload\n      swap1\n      0x0100\n      exp\n      swap1\n      div\n      0xffffffffffffffffffffffffffffffffffffffff\n      and\n      dup2\n      jump\t// out\n        /* \"Flappy.sol\":412:747  function saveBestScore(uint256 newScore) public {... */\n    tag_24:\n        /* \"Flappy.sol\":502:503  0 */\n      0x00\n        /* \"Flappy.sol\":474:486  playerScores */\n      0x02\n        /* \"Flappy.sol\":474:498  playerScores[msg.sender] */\n      0x00\n        /* \"Flappy.sol\":487:497  msg.sender */\n      caller\n        /* \"Flappy.sol\":474:498  playerScores[msg.sender] */\n      0xffffffffffffffffffffffffffffffffffffffff\n      and\n      0xffffffffffffffffffffffffffffffffffffffff\n      and\n      dup2\n      mstore\n      0x20\n      add\n      swap1\n      dup2\n      mstore\n      0x20\n      add\n      0x00\n      keccak256\n      sload\n        /* \"Flappy.sol\":474:503  playerScores[msg.sender] == 0 */\n      eq\n        /* \"Flappy.sol\":474:542  playerScores[msg.sender] == 0 || playerScores[msg.sender] < newScore */\n      dup1\n      tag_63\n      jumpi\n      pop\n        /* \"Flappy.sol\":534:542  newScore */\n      dup1\n        /* \"Flappy.sol\":507:519  playerScores */\n      0x02\n        /* \"Flappy.sol\":507:531  playerScores[msg.sender] */\n      0x00\n        /* \"Flappy.sol\":520:530  msg.sender */\n      caller\n        /* \"Flappy.sol\":507:531  playerScores[msg.sender] */\n      0xffffffffffffffffffffffffffffffffffffffff\n      and\n      0xffffffffffffffffffffffffffffffffffffffff\n      and\n      dup2\n      mstore\n      0x20\n      add\n      swap1\n      dup2\n      mstore\n      0x20\n      add\n      0x00\n      keccak256\n      sload\n        /* \"Flappy.sol\":507:542  playerScores[msg.sender] < newScore */\n      lt\n        /* \"Flappy.sol\":474:542  playerScores[msg.sender] == 0 || playerScores[msg.sender] < newScore */\n    tag_63:\n        /* \"Flappy.sol\":471:740  if(playerScores[msg.sender] == 0 || playerScores[msg.sender] < newScore){... */\n      iszero\n      tag_64\n      jumpi\n        /* \"Flappy.sol\":585:593  newScore */\n      dup1\n        /* \"Flappy.sol\":558:570  playerScores */\n      0x02\n        /* \"Flappy.sol\":558:582  playerScores[msg.sender] */\n      0x00\n        /* \"Flappy.sol\":571:581  msg.sender */\n      caller\n        /* \"Flappy.sol\":558:582  playerScores[msg.sender] */\n      0xffffffffffffffffffffffffffffffffffffffff\n      and\n      0xffffffffffffffffffffffffffffffffffffffff\n      and\n      dup2\n      mstore\n      0x20\n      add\n      swap1\n      dup2\n      mstore\n      0x20\n      add\n      0x00\n      keccak256\n        /* \"Flappy.sol\":558:593  playerScores[msg.sender] = newScore */\n      dup2\n      swap1\n      sstore\n      pop\n        /* \"Flappy.sol\":471:740  if(playerScores[msg.sender] == 0 || playerScores[msg.sender] < newScore){... */\n      jump(tag_65)\n    tag_64:\n        /* \"Flappy.sol\":652:660  newScore */\n      dup1\n        /* \"Flappy.sol\":624:636  playerScores */\n      0x02\n        /* \"Flappy.sol\":624:648  playerScores[msg.sender] */\n      0x00\n        /* \"Flappy.sol\":637:647  msg.sender */\n      caller\n        /* \"Flappy.sol\":624:648  playerScores[msg.sender] */\n      0xffffffffffffffffffffffffffffffffffffffff\n      and\n      0xffffffffffffffffffffffffffffffffffffffff\n      and\n      dup2\n      mstore\n      0x20\n      add\n      swap1\n      dup2\n      mstore\n      0x20\n      add\n      0x00\n      keccak256\n      sload\n        /* \"Flappy.sol\":624:660  playerScores[msg.sender] >= newScore */\n      lt\n        /* \"Flappy.sol\":620:740  if (playerScores[msg.sender] >= newScore) {... */\n      tag_66\n      jumpi\n        /* \"Flappy.sol\":704:716  playerScores */\n      0x02\n        /* \"Flappy.sol\":704:728  playerScores[msg.sender] */\n      0x00\n        /* \"Flappy.sol\":717:727  msg.sender */\n      caller\n        /* \"Flappy.sol\":704:728  playerScores[msg.sender] */\n      0xffffffffffffffffffffffffffffffffffffffff\n      and\n      0xffffffffffffffffffffffffffffffffffffffff\n      and\n      dup2\n      mstore\n      0x20\n      add\n      swap1\n      dup2\n      mstore\n      0x20\n      add\n      0x00\n      keccak256\n      sload\n        /* \"Flappy.sol\":677:689  playerScores */\n      0x02\n        /* \"Flappy.sol\":677:701  playerScores[msg.sender] */\n      0x00\n        /* \"Flappy.sol\":690:700  msg.sender */\n      caller\n        /* \"Flappy.sol\":677:701  playerScores[msg.sender] */\n      0xffffffffffffffffffffffffffffffffffffffff\n      and\n      0xffffffffffffffffffffffffffffffffffffffff\n      and\n      dup2\n      mstore\n      0x20\n      add\n      swap1\n      dup2\n      mstore\n      0x20\n      add\n      0x00\n      keccak256\n        /* \"Flappy.sol\":677:728  playerScores[msg.sender] = playerScores[msg.sender] */\n      dup2\n      swap1\n      sstore\n      pop\n        /* \"Flappy.sol\":620:740  if (playerScores[msg.sender] >= newScore) {... */\n    tag_66:\n        /* \"Flappy.sol\":471:740  if(playerScores[msg.sender] == 0 || playerScores[msg.sender] < newScore){... */\n    tag_65:\n        /* \"Flappy.sol\":412:747  function saveBestScore(uint256 newScore) public {... */\n      pop\n      jump\t// out\n        /* \"Flappy.sol\":865:1304  function pickWinner() public restricted {... */\n    tag_27:\n        /* \"Flappy.sol\":1527:1534  manager */\n      0x00\n      dup1\n      sload\n      swap1\n      0x0100\n      exp\n      swap1\n      div\n      0xffffffffffffffffffffffffffffffffffffffff\n      and\n        /* \"Flappy.sol\":1513:1534  msg.sender == manager */\n      0xffffffffffffffffffffffffffffffffffffffff\n      and\n        /* \"Flappy.sol\":1513:1523  msg.sender */\n      caller\n        /* \"Flappy.sol\":1513:1534  msg.sender == manager */\n      0xffffffffffffffffffffffffffffffffffffffff\n      and\n      eq\n        /* \"Flappy.sol\":1505:1535  require(msg.sender == manager) */\n      tag_68\n      jumpi\n      0x00\n      dup1\n      revert\n    tag_68:\n        /* \"Flappy.sol\":916:932  uint256 maxScore */\n      0x00\n        /* \"Flappy.sol\":947:978  address payable maxScoreAddress */\n      dup1\n        /* \"Flappy.sol\":994:1000  uint i */\n      dup1\n        /* \"Flappy.sol\":1003:1004  0 */\n      0x00\n        /* \"Flappy.sol\":994:1004  uint i = 0 */\n      swap1\n      pop\n        /* \"Flappy.sol\":989:1215  for (uint i = 0; i < players.length; i++) {... */\n    tag_70:\n        /* \"Flappy.sol\":1010:1017  players */\n      0x01\n        /* \"Flappy.sol\":1010:1024  players.length */\n      dup1\n      sload\n      swap1\n      pop\n        /* \"Flappy.sol\":1006:1007  i */\n      dup2\n        /* \"Flappy.sol\":1006:1024  i < players.length */\n      lt\n        /* \"Flappy.sol\":989:1215  for (uint i = 0; i < players.length; i++) {... */\n      iszero\n      tag_71\n      jumpi\n        /* \"Flappy.sol\":1077:1085  maxScore */\n      dup3\n        /* \"Flappy.sol\":1050:1062  playerScores */\n      0x02\n        /* \"Flappy.sol\":1050:1074  playerScores[players[i]] */\n      0x00\n        /* \"Flappy.sol\":1063:1070  players */\n      0x01\n        /* \"Flappy.sol\":1071:1072  i */\n      dup5\n        /* \"Flappy.sol\":1063:1073  players[i] */\n      dup2\n      sload\n      dup2\n      lt\n      tag_73\n      jumpi\n      tag_74\n      tag_58\n      jump\t// in\n    tag_74:\n    tag_73:\n      swap1\n      0x00\n      mstore\n      keccak256(0x00, 0x20)\n      add\n      0x00\n      swap1\n      sload\n      swap1\n      0x0100\n      exp\n      swap1\n      div\n      0xffffffffffffffffffffffffffffffffffffffff\n      and\n        /* \"Flappy.sol\":1050:1074  playerScores[players[i]] */\n      0xffffffffffffffffffffffffffffffffffffffff\n      and\n      0xffffffffffffffffffffffffffffffffffffffff\n      and\n      dup2\n      mstore\n      0x20\n      add\n      swap1\n      dup2\n      mstore\n      0x20\n      add\n      0x00\n      keccak256\n      sload\n        /* \"Flappy.sol\":1050:1085  playerScores[players[i]] > maxScore */\n      gt\n        /* \"Flappy.sol\":1046:1204  if (playerScores[players[i]] > maxScore) {... */\n      iszero\n      tag_76\n      jumpi\n        /* \"Flappy.sol\":1117:1129  playerScores */\n      0x02\n        /* \"Flappy.sol\":1117:1141  playerScores[players[i]] */\n      0x00\n        /* \"Flappy.sol\":1130:1137  players */\n      0x01\n        /* \"Flappy.sol\":1138:1139  i */\n      dup4\n        /* \"Flappy.sol\":1130:1140  players[i] */\n      dup2\n      sload\n      dup2\n      lt\n      tag_77\n      jumpi\n      tag_78\n      tag_58\n      jump\t// in\n    tag_78:\n    tag_77:\n      swap1\n      0x00\n      mstore\n      keccak256(0x00, 0x20)\n      add\n      0x00\n      swap1\n      sload\n      swap1\n      0x0100\n      exp\n      swap1\n      div\n      0xffffffffffffffffffffffffffffffffffffffff\n      and\n        /* \"Flappy.sol\":1117:1141  playerScores[players[i]] */\n      0xffffffffffffffffffffffffffffffffffffffff\n      and\n      0xffffffffffffffffffffffffffffffffffffffff\n      and\n      dup2\n      mstore\n      0x20\n      add\n      swap1\n      dup2\n      mstore\n      0x20\n      add\n      0x00\n      keccak256\n      sload\n        /* \"Flappy.sol\":1106:1141  maxScore = playerScores[players[i]] */\n      swap3\n      pop\n        /* \"Flappy.sol\":1178:1185  players */\n      0x01\n        /* \"Flappy.sol\":1186:1187  i */\n      dup2\n        /* \"Flappy.sol\":1178:1188  players[i] */\n      dup2\n      sload\n      dup2\n      lt\n      tag_80\n      jumpi\n      tag_81\n      tag_58\n      jump\t// in\n    tag_81:\n    tag_80:\n      swap1\n      0x00\n      mstore\n      keccak256(0x00, 0x20)\n      add\n      0x00\n      swap1\n      sload\n      swap1\n      0x0100\n      exp\n      swap1\n      div\n      0xffffffffffffffffffffffffffffffffffffffff\n      and\n        /* \"Flappy.sol\":1160:1188  maxScoreAddress = players[i] */\n      swap2\n      pop\n        /* \"Flappy.sol\":1046:1204  if (playerScores[players[i]] > maxScore) {... */\n    tag_76:\n        /* \"Flappy.sol\":1026:1029  i++ */\n      dup1\n      dup1\n      tag_83\n      swap1\n      tag_61\n      jump\t// in\n    tag_83:\n      swap2\n      pop\n      pop\n        /* \"Flappy.sol\":989:1215  for (uint i = 0; i < players.length; i++) {... */\n      jump(tag_70)\n    tag_71:\n      pop\n        /* \"Flappy.sol\":1225:1240  maxScoreAddress */\n      dup1\n        /* \"Flappy.sol\":1225:1249  maxScoreAddress.transfer */\n      0xffffffffffffffffffffffffffffffffffffffff\n      and\n        /* \"Flappy.sol\":1225:1272  maxScoreAddress.transfer(address(this).balance) */\n      0x08fc\n        /* \"Flappy.sol\":1250:1271  address(this).balance */\n      selfbalance\n        /* \"Flappy.sol\":1225:1272  maxScoreAddress.transfer(address(this).balance) */\n      swap1\n      dup2\n      iszero\n      mul\n      swap1\n      mload(0x40)\n      0x00\n      mload(0x40)\n      dup1\n      dup4\n      sub\n      dup2\n      dup6\n      dup9\n      dup9\n      call\n      swap4\n      pop\n      pop\n      pop\n      pop\n      iszero\n      dup1\n      iszero\n      tag_85\n      jumpi\n      returndatasize\n      0x00\n      dup1\n      returndatacopy\n      revert(0x00, returndatasize)\n    tag_85:\n      pop\n        /* \"Flappy.sol\":1283:1296  resetScores() */\n      tag_86\n        /* \"Flappy.sol\":1283:1294  resetScores */\n      tag_14\n        /* \"Flappy.sol\":1283:1296  resetScores() */\n      jump\t// in\n    tag_86:\n        /* \"Flappy.sol\":905:1304  {... */\n      pop\n      pop\n        /* \"Flappy.sol\":865:1304  function pickWinner() public restricted {... */\n      jump\t// out\n        /* \"Flappy.sol\":153:201  mapping (address => uint256) public playerScores */\n    tag_32:\n      mstore(0x20, 0x02)\n      dup1\n      0x00\n      mstore\n      keccak256(0x00, 0x40)\n      0x00\n      swap2\n      pop\n      swap1\n      pop\n      sload\n      dup2\n      jump\t// out\n        /* \"Flappy.sol\":1567:1669  function getPlayers() public view returns (address payable[] memory) {... */\n    tag_37:\n        /* \"Flappy.sol\":1610:1634  address payable[] memory */\n      0x60\n        /* \"Flappy.sol\":1654:1661  players */\n      0x01\n        /* \"Flappy.sol\":1647:1661  return players */\n      dup1\n      sload\n      dup1\n      0x20\n      mul\n      0x20\n      add\n      mload(0x40)\n      swap1\n      dup2\n      add\n      0x40\n      mstore\n      dup1\n      swap3\n      swap2\n      swap1\n      dup2\n      dup2\n      mstore\n      0x20\n      add\n      dup3\n      dup1\n      sload\n      dup1\n      iszero\n      tag_88\n      jumpi\n      0x20\n      mul\n      dup3\n      add\n      swap2\n      swap1\n      0x00\n      mstore\n      keccak256(0x00, 0x20)\n      swap1\n    tag_89:\n      dup2\n      0x00\n      swap1\n      sload\n      swap1\n      0x0100\n      exp\n      swap1\n      div\n      0xffffffffffffffffffffffffffffffffffffffff\n      and\n      0xffffffffffffffffffffffffffffffffffffffff\n      and\n      dup2\n      mstore\n      0x20\n      add\n      swap1\n      0x01\n      add\n      swap1\n      dup1\n      dup4\n      gt\n      tag_89\n      jumpi\n    tag_88:\n      pop\n      pop\n      pop\n      pop\n      pop\n      swap1\n      pop\n        /* \"Flappy.sol\":1567:1669  function getPlayers() public view returns (address payable[] memory) {... */\n      swap1\n      jump\t// out\n        /* \"Flappy.sol\":755:853  function getPlayerScore() public view returns (uint256) {... */\n    tag_42:\n        /* \"Flappy.sol\":802:809  uint256 */\n      0x00\n        /* \"Flappy.sol\":825:837  playerScores */\n      0x02\n        /* \"Flappy.sol\":825:849  playerScores[msg.sender] */\n      0x00\n        /* \"Flappy.sol\":838:848  msg.sender */\n      caller\n        /* \"Flappy.sol\":825:849  playerScores[msg.sender] */\n      0xffffffffffffffffffffffffffffffffffffffff\n      and\n      0xffffffffffffffffffffffffffffffffffffffff\n      and\n      dup2\n      mstore\n      0x20\n      add\n      swap1\n      dup2\n      mstore\n      0x20\n      add\n      0x00\n      keccak256\n      sload\n        /* \"Flappy.sol\":818:849  return playerScores[msg.sender] */\n      swap1\n      pop\n        /* \"Flappy.sol\":755:853  function getPlayerScore() public view returns (uint256) {... */\n      swap1\n      jump\t// out\n        /* \"Flappy.sol\":279:404  function enter() public payable {... */\n    tag_45:\n        /* \"Flappy.sol\":342:351  .01 ether */\n      0x2386f26fc10000\n        /* \"Flappy.sol\":330:339  msg.value */\n      callvalue\n        /* \"Flappy.sol\":330:351  msg.value > .01 ether */\n      gt\n        /* \"Flappy.sol\":322:352  require(msg.value > .01 ether) */\n      tag_92\n      jumpi\n      0x00\n      dup1\n      revert\n    tag_92:\n        /* \"Flappy.sol\":363:370  players */\n      0x01\n        /* \"Flappy.sol\":384:394  msg.sender */\n      caller\n        /* \"Flappy.sol\":363:396  players.push(payable(msg.sender)) */\n      swap1\n      dup1\n      0x01\n      dup2\n      sload\n      add\n      dup1\n      dup3\n      sstore\n      dup1\n      swap2\n      pop\n      pop\n      0x01\n      swap1\n      sub\n      swap1\n      0x00\n      mstore\n      keccak256(0x00, 0x20)\n      add\n      0x00\n      swap1\n      swap2\n      swap1\n      swap2\n      swap1\n      swap2\n      0x0100\n      exp\n      dup2\n      sload\n      dup2\n      0xffffffffffffffffffffffffffffffffffffffff\n      mul\n      not\n      and\n      swap1\n      dup4\n      0xffffffffffffffffffffffffffffffffffffffff\n      and\n      mul\n      or\n      swap1\n      sstore\n      pop\n        /* \"Flappy.sol\":279:404  function enter() public payable {... */\n      jump\t// out\n        /* \"Flappy.sol\":114:146  address payable[] public players */\n    tag_49:\n      0x01\n      dup2\n      dup2\n      sload\n      dup2\n      lt\n      tag_94\n      jumpi\n      0x00\n      dup1\n      revert\n    tag_94:\n      swap1\n      0x00\n      mstore\n      keccak256(0x00, 0x20)\n      add\n      0x00\n      swap2\n      pop\n      sload\n      swap1\n      0x0100\n      exp\n      swap1\n      div\n      0xffffffffffffffffffffffffffffffffffffffff\n      and\n      dup2\n      jump\t// out\n        /* \"#utility.yul\":7:133   */\n    tag_96:\n        /* \"#utility.yul\":44:51   */\n      0x00\n        /* \"#utility.yul\":84:126   */\n      0xffffffffffffffffffffffffffffffffffffffff\n        /* \"#utility.yul\":77:82   */\n      dup3\n        /* \"#utility.yul\":73:127   */\n      and\n        /* \"#utility.yul\":62:127   */\n      swap1\n      pop\n        /* \"#utility.yul\":7:133   */\n      swap2\n      swap1\n      pop\n      jump\t// out\n        /* \"#utility.yul\":139:235   */\n    tag_97:\n        /* \"#utility.yul\":176:183   */\n      0x00\n        /* \"#utility.yul\":205:229   */\n      tag_121\n        /* \"#utility.yul\":223:228   */\n      dup3\n        /* \"#utility.yul\":205:229   */\n      tag_96\n      jump\t// in\n    tag_121:\n        /* \"#utility.yul\":194:229   */\n      swap1\n      pop\n        /* \"#utility.yul\":139:235   */\n      swap2\n      swap1\n      pop\n      jump\t// out\n        /* \"#utility.yul\":241:359   */\n    tag_98:\n        /* \"#utility.yul\":328:352   */\n      tag_123\n        /* \"#utility.yul\":346:351   */\n      dup2\n        /* \"#utility.yul\":328:352   */\n      tag_97\n      jump\t// in\n    tag_123:\n        /* \"#utility.yul\":323:326   */\n      dup3\n        /* \"#utility.yul\":316:353   */\n      mstore\n        /* \"#utility.yul\":241:359   */\n      pop\n      pop\n      jump\t// out\n        /* \"#utility.yul\":365:587   */\n    tag_19:\n        /* \"#utility.yul\":458:462   */\n      0x00\n        /* \"#utility.yul\":496:498   */\n      0x20\n        /* \"#utility.yul\":485:494   */\n      dup3\n        /* \"#utility.yul\":481:499   */\n      add\n        /* \"#utility.yul\":473:499   */\n      swap1\n      pop\n        /* \"#utility.yul\":509:580   */\n      tag_125\n        /* \"#utility.yul\":577:578   */\n      0x00\n        /* \"#utility.yul\":566:575   */\n      dup4\n        /* \"#utility.yul\":562:579   */\n      add\n        /* \"#utility.yul\":553:559   */\n      dup5\n        /* \"#utility.yul\":509:580   */\n      tag_98\n      jump\t// in\n    tag_125:\n        /* \"#utility.yul\":365:587   */\n      swap3\n      swap2\n      pop\n      pop\n      jump\t// out\n        /* \"#utility.yul\":674:791   */\n    tag_100:\n        /* \"#utility.yul\":783:784   */\n      0x00\n        /* \"#utility.yul\":780:781   */\n      dup1\n        /* \"#utility.yul\":773:785   */\n      revert\n        /* \"#utility.yul\":920:997   */\n    tag_102:\n        /* \"#utility.yul\":957:964   */\n      0x00\n        /* \"#utility.yul\":986:991   */\n      dup2\n        /* \"#utility.yul\":975:991   */\n      swap1\n      pop\n        /* \"#utility.yul\":920:997   */\n      swap2\n      swap1\n      pop\n      jump\t// out\n        /* \"#utility.yul\":1003:1125   */\n    tag_103:\n        /* \"#utility.yul\":1076:1100   */\n      tag_131\n        /* \"#utility.yul\":1094:1099   */\n      dup2\n        /* \"#utility.yul\":1076:1100   */\n      tag_102\n      jump\t// in\n    tag_131:\n        /* \"#utility.yul\":1069:1074   */\n      dup2\n        /* \"#utility.yul\":1066:1101   */\n      eq\n        /* \"#utility.yul\":1056:1119   */\n      tag_132\n      jumpi\n        /* \"#utility.yul\":1115:1116   */\n      0x00\n        /* \"#utility.yul\":1112:1113   */\n      dup1\n        /* \"#utility.yul\":1105:1117   */\n      revert\n        /* \"#utility.yul\":1056:1119   */\n    tag_132:\n        /* \"#utility.yul\":1003:1125   */\n      pop\n      jump\t// out\n        /* \"#utility.yul\":1131:1270   */\n    tag_104:\n        /* \"#utility.yul\":1177:1182   */\n      0x00\n        /* \"#utility.yul\":1215:1221   */\n      dup2\n        /* \"#utility.yul\":1202:1222   */\n      calldataload\n        /* \"#utility.yul\":1193:1222   */\n      swap1\n      pop\n        /* \"#utility.yul\":1231:1264   */\n      tag_134\n        /* \"#utility.yul\":1258:1263   */\n      dup2\n        /* \"#utility.yul\":1231:1264   */\n      tag_103\n      jump\t// in\n    tag_134:\n        /* \"#utility.yul\":1131:1270   */\n      swap3\n      swap2\n      pop\n      pop\n      jump\t// out\n        /* \"#utility.yul\":1276:1605   */\n    tag_23:\n        /* \"#utility.yul\":1335:1341   */\n      0x00\n        /* \"#utility.yul\":1384:1386   */\n      0x20\n        /* \"#utility.yul\":1372:1381   */\n      dup3\n        /* \"#utility.yul\":1363:1370   */\n      dup5\n        /* \"#utility.yul\":1359:1382   */\n      sub\n        /* \"#utility.yul\":1355:1387   */\n      slt\n        /* \"#utility.yul\":1352:1471   */\n      iszero\n      tag_136\n      jumpi\n        /* \"#utility.yul\":1390:1469   */\n      tag_137\n      tag_100\n      jump\t// in\n    tag_137:\n        /* \"#utility.yul\":1352:1471   */\n    tag_136:\n        /* \"#utility.yul\":1510:1511   */\n      0x00\n        /* \"#utility.yul\":1535:1588   */\n      tag_138\n        /* \"#utility.yul\":1580:1587   */\n      dup5\n        /* \"#utility.yul\":1571:1577   */\n      dup3\n        /* \"#utility.yul\":1560:1569   */\n      dup6\n        /* \"#utility.yul\":1556:1578   */\n      add\n        /* \"#utility.yul\":1535:1588   */\n      tag_104\n      jump\t// in\n    tag_138:\n        /* \"#utility.yul\":1525:1588   */\n      swap2\n      pop\n        /* \"#utility.yul\":1481:1598   */\n      pop\n        /* \"#utility.yul\":1276:1605   */\n      swap3\n      swap2\n      pop\n      pop\n      jump\t// out\n        /* \"#utility.yul\":1611:1733   */\n    tag_105:\n        /* \"#utility.yul\":1684:1708   */\n      tag_140\n        /* \"#utility.yul\":1702:1707   */\n      dup2\n        /* \"#utility.yul\":1684:1708   */\n      tag_97\n      jump\t// in\n    tag_140:\n        /* \"#utility.yul\":1677:1682   */\n      dup2\n        /* \"#utility.yul\":1674:1709   */\n      eq\n        /* \"#utility.yul\":1664:1727   */\n      tag_141\n      jumpi\n        /* \"#utility.yul\":1723:1724   */\n      0x00\n        /* \"#utility.yul\":1720:1721   */\n      dup1\n        /* \"#utility.yul\":1713:1725   */\n      revert\n        /* \"#utility.yul\":1664:1727   */\n    tag_141:\n        /* \"#utility.yul\":1611:1733   */\n      pop\n      jump\t// out\n        /* \"#utility.yul\":1739:1878   */\n    tag_106:\n        /* \"#utility.yul\":1785:1790   */\n      0x00\n        /* \"#utility.yul\":1823:1829   */\n      dup2\n        /* \"#utility.yul\":1810:1830   */\n      calldataload\n        /* \"#utility.yul\":1801:1830   */\n      swap1\n      pop\n        /* \"#utility.yul\":1839:1872   */\n      tag_143\n        /* \"#utility.yul\":1866:1871   */\n      dup2\n        /* \"#utility.yul\":1839:1872   */\n      tag_105\n      jump\t// in\n    tag_143:\n        /* \"#utility.yul\":1739:1878   */\n      swap3\n      swap2\n      pop\n      pop\n      jump\t// out\n        /* \"#utility.yul\":1884:2213   */\n    tag_31:\n        /* \"#utility.yul\":1943:1949   */\n      0x00\n        /* \"#utility.yul\":1992:1994   */\n      0x20\n        /* \"#utility.yul\":1980:1989   */\n      dup3\n        /* \"#utility.yul\":1971:1978   */\n      dup5\n        /* \"#utility.yul\":1967:1990   */\n      sub\n        /* \"#utility.yul\":1963:1995   */\n      slt\n        /* \"#utility.yul\":1960:2079   */\n      iszero\n      tag_145\n      jumpi\n        /* \"#utility.yul\":1998:2077   */\n      tag_146\n      tag_100\n      jump\t// in\n    tag_146:\n        /* \"#utility.yul\":1960:2079   */\n    tag_145:\n        /* \"#utility.yul\":2118:2119   */\n      0x00\n        /* \"#utility.yul\":2143:2196   */\n      tag_147\n        /* \"#utility.yul\":2188:2195   */\n      dup5\n        /* \"#utility.yul\":2179:2185   */\n      dup3\n        /* \"#utility.yul\":2168:2177   */\n      dup6\n        /* \"#utility.yul\":2164:2186   */\n      add\n        /* \"#utility.yul\":2143:2196   */\n      tag_106\n      jump\t// in\n    tag_147:\n        /* \"#utility.yul\":2133:2196   */\n      swap2\n      pop\n        /* \"#utility.yul\":2089:2206   */\n      pop\n        /* \"#utility.yul\":1884:2213   */\n      swap3\n      swap2\n      pop\n      pop\n      jump\t// out\n        /* \"#utility.yul\":2219:2337   */\n    tag_107:\n        /* \"#utility.yul\":2306:2330   */\n      tag_149\n        /* \"#utility.yul\":2324:2329   */\n      dup2\n        /* \"#utility.yul\":2306:2330   */\n      tag_102\n      jump\t// in\n    tag_149:\n        /* \"#utility.yul\":2301:2304   */\n      dup3\n        /* \"#utility.yul\":2294:2331   */\n      mstore\n        /* \"#utility.yul\":2219:2337   */\n      pop\n      pop\n      jump\t// out\n        /* \"#utility.yul\":2343:2565   */\n    tag_34:\n        /* \"#utility.yul\":2436:2440   */\n      0x00\n        /* \"#utility.yul\":2474:2476   */\n      0x20\n        /* \"#utility.yul\":2463:2472   */\n      dup3\n        /* \"#utility.yul\":2459:2477   */\n      add\n        /* \"#utility.yul\":2451:2477   */\n      swap1\n      pop\n        /* \"#utility.yul\":2487:2558   */\n      tag_151\n        /* \"#utility.yul\":2555:2556   */\n      0x00\n        /* \"#utility.yul\":2544:2553   */\n      dup4\n        /* \"#utility.yul\":2540:2557   */\n      add\n        /* \"#utility.yul\":2531:2537   */\n      dup5\n        /* \"#utility.yul\":2487:2558   */\n      tag_107\n      jump\t// in\n    tag_151:\n        /* \"#utility.yul\":2343:2565   */\n      swap3\n      swap2\n      pop\n      pop\n      jump\t// out\n        /* \"#utility.yul\":2571:2693   */\n    tag_108:\n        /* \"#utility.yul\":2646:2652   */\n      0x00\n        /* \"#utility.yul\":2680:2685   */\n      dup2\n        /* \"#utility.yul\":2674:2686   */\n      mload\n        /* \"#utility.yul\":2664:2686   */\n      swap1\n      pop\n        /* \"#utility.yul\":2571:2693   */\n      swap2\n      swap1\n      pop\n      jump\t// out\n        /* \"#utility.yul\":2699:2891   */\n    tag_109:\n        /* \"#utility.yul\":2806:2817   */\n      0x00\n        /* \"#utility.yul\":2840:2846   */\n      dup3\n        /* \"#utility.yul\":2835:2838   */\n      dup3\n        /* \"#utility.yul\":2828:2847   */\n      mstore\n        /* \"#utility.yul\":2880:2884   */\n      0x20\n        /* \"#utility.yul\":2875:2878   */\n      dup3\n        /* \"#utility.yul\":2871:2885   */\n      add\n        /* \"#utility.yul\":2856:2885   */\n      swap1\n      pop\n        /* \"#utility.yul\":2699:2891   */\n      swap3\n      swap2\n      pop\n      pop\n      jump\t// out\n        /* \"#utility.yul\":2897:3037   */\n    tag_110:\n        /* \"#utility.yul\":2972:2976   */\n      0x00\n        /* \"#utility.yul\":2995:2998   */\n      dup2\n        /* \"#utility.yul\":2987:2998   */\n      swap1\n      pop\n        /* \"#utility.yul\":3025:3029   */\n      0x20\n        /* \"#utility.yul\":3020:3023   */\n      dup3\n        /* \"#utility.yul\":3016:3030   */\n      add\n        /* \"#utility.yul\":3008:3030   */\n      swap1\n      pop\n        /* \"#utility.yul\":2897:3037   */\n      swap2\n      swap1\n      pop\n      jump\t// out\n        /* \"#utility.yul\":3043:3147   */\n    tag_111:\n        /* \"#utility.yul\":3088:3095   */\n      0x00\n        /* \"#utility.yul\":3117:3141   */\n      tag_156\n        /* \"#utility.yul\":3135:3140   */\n      dup3\n        /* \"#utility.yul\":3117:3141   */\n      tag_96\n      jump\t// in\n    tag_156:\n        /* \"#utility.yul\":3106:3141   */\n      swap1\n      pop\n        /* \"#utility.yul\":3043:3147   */\n      swap2\n      swap1\n      pop\n      jump\t// out\n        /* \"#utility.yul\":3153:3285   */\n    tag_112:\n        /* \"#utility.yul\":3246:3278   */\n      tag_158\n        /* \"#utility.yul\":3272:3277   */\n      dup2\n        /* \"#utility.yul\":3246:3278   */\n      tag_111\n      jump\t// in\n    tag_158:\n        /* \"#utility.yul\":3241:3244   */\n      dup3\n        /* \"#utility.yul\":3234:3279   */\n      mstore\n        /* \"#utility.yul\":3153:3285   */\n      pop\n      pop\n      jump\t// out\n        /* \"#utility.yul\":3291:3502   */\n    tag_113:\n        /* \"#utility.yul\":3376:3386   */\n      0x00\n        /* \"#utility.yul\":3397:3459   */\n      tag_160\n        /* \"#utility.yul\":3455:3458   */\n      dup4\n        /* \"#utility.yul\":3447:3453   */\n      dup4\n        /* \"#utility.yul\":3397:3459   */\n      tag_112\n      jump\t// in\n    tag_160:\n        /* \"#utility.yul\":3491:3495   */\n      0x20\n        /* \"#utility.yul\":3486:3489   */\n      dup4\n        /* \"#utility.yul\":3482:3496   */\n      add\n        /* \"#utility.yul\":3468:3496   */\n      swap1\n      pop\n        /* \"#utility.yul\":3291:3502   */\n      swap3\n      swap2\n      pop\n      pop\n      jump\t// out\n        /* \"#utility.yul\":3508:3629   */\n    tag_114:\n        /* \"#utility.yul\":3586:3590   */\n      0x00\n        /* \"#utility.yul\":3618:3622   */\n      0x20\n        /* \"#utility.yul\":3613:3616   */\n      dup3\n        /* \"#utility.yul\":3609:3623   */\n      add\n        /* \"#utility.yul\":3601:3623   */\n      swap1\n      pop\n        /* \"#utility.yul\":3508:3629   */\n      swap2\n      swap1\n      pop\n      jump\t// out\n        /* \"#utility.yul\":3681:4477   */\n    tag_115:\n        /* \"#utility.yul\":3816:3819   */\n      0x00\n        /* \"#utility.yul\":3845:3907   */\n      tag_163\n        /* \"#utility.yul\":3901:3906   */\n      dup3\n        /* \"#utility.yul\":3845:3907   */\n      tag_108\n      jump\t// in\n    tag_163:\n        /* \"#utility.yul\":3923:4017   */\n      tag_164\n        /* \"#utility.yul\":4010:4016   */\n      dup2\n        /* \"#utility.yul\":4005:4008   */\n      dup6\n        /* \"#utility.yul\":3923:4017   */\n      tag_109\n      jump\t// in\n    tag_164:\n        /* \"#utility.yul\":3916:4017   */\n      swap4\n      pop\n        /* \"#utility.yul\":4041:4105   */\n      tag_165\n        /* \"#utility.yul\":4099:4104   */\n      dup4\n        /* \"#utility.yul\":4041:4105   */\n      tag_110\n      jump\t// in\n    tag_165:\n        /* \"#utility.yul\":4128:4135   */\n      dup1\n        /* \"#utility.yul\":4159:4160   */\n      0x00\n        /* \"#utility.yul\":4144:4452   */\n    tag_166:\n        /* \"#utility.yul\":4169:4175   */\n      dup4\n        /* \"#utility.yul\":4166:4167   */\n      dup2\n        /* \"#utility.yul\":4163:4176   */\n      lt\n        /* \"#utility.yul\":4144:4452   */\n      iszero\n      tag_168\n      jumpi\n        /* \"#utility.yul\":4245:4251   */\n      dup2\n        /* \"#utility.yul\":4239:4252   */\n      mload\n        /* \"#utility.yul\":4272:4351   */\n      tag_169\n        /* \"#utility.yul\":4347:4350   */\n      dup9\n        /* \"#utility.yul\":4332:4345   */\n      dup3\n        /* \"#utility.yul\":4272:4351   */\n      tag_113\n      jump\t// in\n    tag_169:\n        /* \"#utility.yul\":4265:4351   */\n      swap8\n      pop\n        /* \"#utility.yul\":4374:4442   */\n      tag_170\n        /* \"#utility.yul\":4435:4441   */\n      dup4\n        /* \"#utility.yul\":4374:4442   */\n      tag_114\n      jump\t// in\n    tag_170:\n        /* \"#utility.yul\":4364:4442   */\n      swap3\n      pop\n        /* \"#utility.yul\":4204:4452   */\n      pop\n        /* \"#utility.yul\":4191:4192   */\n      0x01\n        /* \"#utility.yul\":4188:4189   */\n      dup2\n        /* \"#utility.yul\":4184:4193   */\n      add\n        /* \"#utility.yul\":4179:4193   */\n      swap1\n      pop\n        /* \"#utility.yul\":4144:4452   */\n      jump(tag_166)\n    tag_168:\n        /* \"#utility.yul\":4148:4162   */\n      pop\n        /* \"#utility.yul\":4468:4471   */\n      dup6\n        /* \"#utility.yul\":4461:4471   */\n      swap4\n      pop\n        /* \"#utility.yul\":3821:4477   */\n      pop\n      pop\n      pop\n        /* \"#utility.yul\":3681:4477   */\n      swap3\n      swap2\n      pop\n      pop\n      jump\t// out\n        /* \"#utility.yul\":4483:4888   */\n    tag_39:\n        /* \"#utility.yul\":4642:4646   */\n      0x00\n        /* \"#utility.yul\":4680:4682   */\n      0x20\n        /* \"#utility.yul\":4669:4678   */\n      dup3\n        /* \"#utility.yul\":4665:4683   */\n      add\n        /* \"#utility.yul\":4657:4683   */\n      swap1\n      pop\n        /* \"#utility.yul\":4729:4738   */\n      dup2\n        /* \"#utility.yul\":4723:4727   */\n      dup2\n        /* \"#utility.yul\":4719:4739   */\n      sub\n        /* \"#utility.yul\":4715:4716   */\n      0x00\n        /* \"#utility.yul\":4704:4713   */\n      dup4\n        /* \"#utility.yul\":4700:4717   */\n      add\n        /* \"#utility.yul\":4693:4740   */\n      mstore\n        /* \"#utility.yul\":4757:4881   */\n      tag_172\n        /* \"#utility.yul\":4876:4880   */\n      dup2\n        /* \"#utility.yul\":4867:4873   */\n      dup5\n        /* \"#utility.yul\":4757:4881   */\n      tag_115\n      jump\t// in\n    tag_172:\n        /* \"#utility.yul\":4749:4881   */\n      swap1\n      pop\n        /* \"#utility.yul\":4483:4888   */\n      swap3\n      swap2\n      pop\n      pop\n      jump\t// out\n        /* \"#utility.yul\":4894:5036   */\n    tag_116:\n        /* \"#utility.yul\":4997:5029   */\n      tag_174\n        /* \"#utility.yul\":5023:5028   */\n      dup2\n        /* \"#utility.yul\":4997:5029   */\n      tag_111\n      jump\t// in\n    tag_174:\n        /* \"#utility.yul\":4992:4995   */\n      dup3\n        /* \"#utility.yul\":4985:5030   */\n      mstore\n        /* \"#utility.yul\":4894:5036   */\n      pop\n      pop\n      jump\t// out\n        /* \"#utility.yul\":5042:5296   */\n    tag_51:\n        /* \"#utility.yul\":5151:5155   */\n      0x00\n        /* \"#utility.yul\":5189:5191   */\n      0x20\n        /* \"#utility.yul\":5178:5187   */\n      dup3\n        /* \"#utility.yul\":5174:5192   */\n      add\n        /* \"#utility.yul\":5166:5192   */\n      swap1\n      pop\n        /* \"#utility.yul\":5202:5289   */\n      tag_176\n        /* \"#utility.yul\":5286:5287   */\n      0x00\n        /* \"#utility.yul\":5275:5284   */\n      dup4\n        /* \"#utility.yul\":5271:5288   */\n      add\n        /* \"#utility.yul\":5262:5268   */\n      dup5\n        /* \"#utility.yul\":5202:5289   */\n      tag_116\n      jump\t// in\n    tag_176:\n        /* \"#utility.yul\":5042:5296   */\n      swap3\n      swap2\n      pop\n      pop\n      jump\t// out\n        /* \"#utility.yul\":5302:5482   */\n    tag_58:\n        /* \"#utility.yul\":5350:5427   */\n      0x4e487b7100000000000000000000000000000000000000000000000000000000\n        /* \"#utility.yul\":5347:5348   */\n      0x00\n        /* \"#utility.yul\":5340:5428   */\n      mstore\n        /* \"#utility.yul\":5447:5451   */\n      0x32\n        /* \"#utility.yul\":5444:5445   */\n      0x04\n        /* \"#utility.yul\":5437:5452   */\n      mstore\n        /* \"#utility.yul\":5471:5475   */\n      0x24\n        /* \"#utility.yul\":5468:5469   */\n      0x00\n        /* \"#utility.yul\":5461:5476   */\n      revert\n        /* \"#utility.yul\":5488:5668   */\n    tag_117:\n        /* \"#utility.yul\":5536:5613   */\n      0x4e487b7100000000000000000000000000000000000000000000000000000000\n        /* \"#utility.yul\":5533:5534   */\n      0x00\n        /* \"#utility.yul\":5526:5614   */\n      mstore\n        /* \"#utility.yul\":5633:5637   */\n      0x11\n        /* \"#utility.yul\":5630:5631   */\n      0x04\n        /* \"#utility.yul\":5623:5638   */\n      mstore\n        /* \"#utility.yul\":5657:5661   */\n      0x24\n        /* \"#utility.yul\":5654:5655   */\n      0x00\n        /* \"#utility.yul\":5647:5662   */\n      revert\n        /* \"#utility.yul\":5674:5907   */\n    tag_61:\n        /* \"#utility.yul\":5713:5716   */\n      0x00\n        /* \"#utility.yul\":5736:5760   */\n      tag_180\n        /* \"#utility.yul\":5754:5759   */\n      dup3\n        /* \"#utility.yul\":5736:5760   */\n      tag_102\n      jump\t// in\n    tag_180:\n        /* \"#utility.yul\":5727:5760   */\n      swap2\n      pop\n        /* \"#utility.yul\":5782:5848   */\n      0xffffffffffffffffffffffffffffffffffffffffffffffffffffffffffffffff\n        /* \"#utility.yul\":5775:5780   */\n      dup3\n        /* \"#utility.yul\":5772:5849   */\n      eq\n        /* \"#utility.yul\":5769:5872   */\n      iszero\n      tag_181\n      jumpi\n        /* \"#utility.yul\":5852:5870   */\n      tag_182\n      tag_117\n      jump\t// in\n    tag_182:\n        /* \"#utility.yul\":5769:5872   */\n    tag_181:\n        /* \"#utility.yul\":5899:5900   */\n      0x01\n        /* \"#utility.yul\":5892:5897   */\n      dup3\n        /* \"#utility.yul\":5888:5901   */\n      add\n        /* \"#utility.yul\":5881:5901   */\n      swap1\n      pop\n        /* \"#utility.yul\":5674:5907   */\n      swap2\n      swap1\n      pop\n      jump\t// out\n\n    auxdata: 0xa2646970667358221220ebb6ec004c57475a9eccae2cbddf1e377e1ae9c22d9d1529b71e498a0e7b596064736f6c63430008090033\n}\n","bytecode":{"linkReferences":{},"object":"608060405234801561001057600080fd5b50336000806101000a81548173ffffffffffffffffffffffffffffffffffffffff021916908373ffffffffffffffffffffffffffffffffffffffff160217905550610b5c806100606000396000f3fe6080604052600436106100865760003560e01c806362550ae11161005957806362550ae11461010d5780638b5b9ccc1461014a578063dc21d02014610175578063e97dcb62146101a0578063f71d96cb146101aa57610086565b80631aa876591461008b578063481c6a75146100a2578063547bf2d3146100cd5780635d495aea146100f6575b600080fd5b34801561009757600080fd5b506100a06101e7565b005b3480156100ae57600080fd5b506100b7610290565b6040516100c4919061085d565b60405180910390f35b3480156100d957600080fd5b506100f460048036038101906100ef91906108b3565b6102b4565b005b34801561010257600080fd5b5061010b61045c565b005b34801561011957600080fd5b50610134600480360381019061012f919061090c565b610678565b6040516101419190610948565b60405180910390f35b34801561015657600080fd5b5061015f610690565b60405161016c9190610a33565b60405180910390f35b34801561018157600080fd5b5061018a61071e565b6040516101979190610948565b60405180910390f35b6101a8610765565b005b3480156101b657600080fd5b506101d160048036038101906101cc91906108b3565b6107dd565b6040516101de9190610a64565b60405180910390f35b60005b60018054905081101561028d576000600260006001848154811061021157610210610a7f565b5b9060005260206000200160009054906101000a900473ffffffffffffffffffffffffffffffffffffffff1673ffffffffffffffffffffffffffffffffffffffff1673ffffffffffffffffffffffffffffffffffffffff16815260200190815260200160002081905550808061028590610add565b9150506101ea565b50565b60008054906101000a900473ffffffffffffffffffffffffffffffffffffffff1681565b6000600260003373ffffffffffffffffffffffffffffffffffffffff1673ffffffffffffffffffffffffffffffffffffffff168152602001908152602001600020541480610340575080600260003373ffffffffffffffffffffffffffffffffffffffff1673ffffffffffffffffffffffffffffffffffffffff16815260200190815260200160002054105b1561038e5780600260003373ffffffffffffffffffffffffffffffffffffffff1673ffffffffffffffffffffffffffffffffffffffff16815260200190815260200160002081905550610459565b80600260003373ffffffffffffffffffffffffffffffffffffffff1673ffffffffffffffffffffffffffffffffffffffff168152602001908152602001600020541061045857600260003373ffffffffffffffffffffffffffffffffffffffff1673ffffffffffffffffffffffffffffffffffffffff16815260200190815260200160002054600260003373ffffffffffffffffffffffffffffffffffffffff1673ffffffffffffffffffffffffffffffffffffffff168152602001908152602001600020819055505b5b50565b60008054906101000a900473ffffffffffffffffffffffffffffffffffffffff1673ffffffffffffffffffffffffffffffffffffffff163373ffffffffffffffffffffffffffffffffffffffff16146104b457600080fd5b60008080600090505b600180549050811015610624578260026000600184815481106104e3576104e2610a7f565b5b9060005260206000200160009054906101000a900473ffffffffffffffffffffffffffffffffffffffff1673ffffffffffffffffffffffffffffffffffffffff1673ffffffffffffffffffffffffffffffffffffffff16815260200190815260200160002054111561061157600260006001838154811061056757610566610a7f565b5b9060005260206000200160009054906101000a900473ffffffffffffffffffffffffffffffffffffffff1673ffffffffffffffffffffffffffffffffffffffff1673ffffffffffffffffffffffffffffffffffffffff168152602001908152602001600020549250600181815481106105e3576105e2610a7f565b5b9060005260206000200160009054906101000a900473ffffffffffffffffffffffffffffffffffffffff1691505b808061061c90610add565b9150506104bd565b508073ffffffffffffffffffffffffffffffffffffffff166108fc479081150290604051600060405180830381858888f1935050505015801561066b573d6000803e3d6000fd5b506106746101e7565b5050565b60026020528060005260406000206000915090505481565b6060600180548060200260200160405190810160405280929190818152602001828054801561071457602002820191906000526020600020905b8160009054906101000a900473ffffffffffffffffffffffffffffffffffffffff1673ffffffffffffffffffffffffffffffffffffffff16815260200190600101908083116106ca575b5050505050905090565b6000600260003373ffffffffffffffffffffffffffffffffffffffff1673ffffffffffffffffffffffffffffffffffffffff16815260200190815260200160002054905090565b662386f26fc10000341161077857600080fd5b6001339080600181540180825580915050600190039060005260206000200160009091909190916101000a81548173ffffffffffffffffffffffffffffffffffffffff021916908373ffffffffffffffffffffffffffffffffffffffff160217905550565b600181815481106107ed57600080fd5b906000526020600020016000915054906101000a900473ffffffffffffffffffffffffffffffffffffffff1681565b600073ffffffffffffffffffffffffffffffffffffffff82169050919050565b60006108478261081c565b9050919050565b6108578161083c565b82525050565b6000602082019050610872600083018461084e565b92915050565b600080fd5b6000819050919050565b6108908161087d565b811461089b57600080fd5b50565b6000813590506108ad81610887565b92915050565b6000602082840312156108c9576108c8610878565b5b60006108d78482850161089e565b91505092915050565b6108e98161083c565b81146108f457600080fd5b50565b600081359050610906816108e0565b92915050565b60006020828403121561092257610921610878565b5b6000610930848285016108f7565b91505092915050565b6109428161087d565b82525050565b600060208201905061095d6000830184610939565b92915050565b600081519050919050565b600082825260208201905092915050565b6000819050602082019050919050565b600061099a8261081c565b9050919050565b6109aa8161098f565b82525050565b60006109bc83836109a1565b60208301905092915050565b6000602082019050919050565b60006109e082610963565b6109ea818561096e565b93506109f58361097f565b8060005b83811015610a26578151610a0d88826109b0565b9750610a18836109c8565b9250506001810190506109f9565b5085935050505092915050565b60006020820190508181036000830152610a4d81846109d5565b905092915050565b610a5e8161098f565b82525050565b6000602082019050610a796000830184610a55565b92915050565b7f4e487b7100000000000000000000000000000000000000000000000000000000600052603260045260246000fd5b7f4e487b7100000000000000000000000000000000000000000000000000000000600052601160045260246000fd5b6000610ae88261087d565b91507fffffffffffffffffffffffffffffffffffffffffffffffffffffffffffffffff821415610b1b57610b1a610aae565b5b60018201905091905056fea2646970667358221220ebb6ec004c57475a9eccae2cbddf1e377e1ae9c22d9d1529b71e498a0e7b596064736f6c63430008090033","opcodes":"PUSH1 0x80 PUSH1 0x40 MSTORE CALLVALUE DUP1 ISZERO PUSH2 0x10 JUMPI PUSH1 0x0 DUP1 REVERT JUMPDEST POP CALLER PUSH1 0x0 DUP1 PUSH2 0x100 EXP DUP2 SLOAD DUP2 PUSH20 0xFFFFFFFFFFFFFFFFFFFFFFFFFFFFFFFFFFFFFFFF MUL NOT AND SWAP1 DUP4 PUSH20 0xFFFFFFFFFFFFFFFFFFFFFFFFFFFFFFFFFFFFFFFF AND MUL OR SWAP1 SSTORE POP PUSH2 0xB5C DUP1 PUSH2 0x60 PUSH1 0x0 CODECOPY PUSH1 0x0 RETURN INVALID PUSH1 0x80 PUSH1 0x40 MSTORE PUSH1 0x4 CALLDATASIZE LT PUSH2 0x86 JUMPI PUSH1 0x0 CALLDATALOAD PUSH1 0xE0 SHR DUP1 PUSH4 0x62550AE1 GT PUSH2 0x59 JUMPI DUP1 PUSH4 0x62550AE1 EQ PUSH2 0x10D JUMPI DUP1 PUSH4 0x8B5B9CCC EQ PUSH2 0x14A JUMPI DUP1 PUSH4 0xDC21D020 EQ PUSH2 0x175 JUMPI DUP1 PUSH4 0xE97DCB62 EQ PUSH2 0x1A0 JUMPI DUP1 PUSH4 0xF71D96CB EQ PUSH2 0x1AA JUMPI PUSH2 0x86 JUMP JUMPDEST DUP1 PUSH4 0x1AA87659 EQ PUSH2 0x8B JUMPI DUP1 PUSH4 0x481C6A75 EQ PUSH2 0xA2 JUMPI DUP1 PUSH4 0x547BF2D3 EQ PUSH2 0xCD JUMPI DUP1 PUSH4 0x5D495AEA EQ PUSH2 0xF6 JUMPI JUMPDEST PUSH1 0x0 DUP1 REVERT JUMPDEST CALLVALUE DUP1 ISZERO PUSH2 0x97 JUMPI PUSH1 0x0 DUP1 REVERT JUMPDEST POP PUSH2 0xA0 PUSH2 0x1E7 JUMP JUMPDEST STOP JUMPDEST CALLVALUE DUP1 ISZERO PUSH2 0xAE JUMPI PUSH1 0x0 DUP1 REVERT JUMPDEST POP PUSH2 0xB7 PUSH2 0x290 JUMP JUMPDEST PUSH1 0x40 MLOAD PUSH2 0xC4 SWAP2 SWAP1 PUSH2 0x85D JUMP JUMPDEST PUSH1 0x40 MLOAD DUP1 SWAP2 SUB SWAP1 RETURN JUMPDEST CALLVALUE DUP1 ISZERO PUSH2 0xD9 JUMPI PUSH1 0x0 DUP1 REVERT JUMPDEST POP PUSH2 0xF4 PUSH1 0x4 DUP1 CALLDATASIZE SUB DUP2 ADD SWAP1 PUSH2 0xEF SWAP2 SWAP1 PUSH2 0x8B3 JUMP JUMPDEST PUSH2 0x2B4 JUMP JUMPDEST STOP JUMPDEST CALLVALUE DUP1 ISZERO PUSH2 0x102 JUMPI PUSH1 0x0 DUP1 REVERT JUMPDEST POP PUSH2 0x10B PUSH2 0x45C JUMP JUMPDEST STOP JUMPDEST CALLVALUE DUP1 ISZERO PUSH2 0x119 JUMPI PUSH1 0x0 DUP1 REVERT JUMPDEST POP PUSH2 0x134 PUSH1 0x4 DUP1 CALLDATASIZE SUB DUP2 ADD SWAP1 PUSH2 0x12F SWAP2 SWAP1 PUSH2 0x90C JUMP JUMPDEST PUSH2 0x678 JUMP JUMPDEST PUSH1 0x40 MLOAD PUSH2 0x141 SWAP2 SWAP1 PUSH2 0x948 JUMP JUMPDEST PUSH1 0x40 MLOAD DUP1 SWAP2 SUB SWAP1 RETURN JUMPDEST CALLVALUE DUP1 ISZERO PUSH2 0x156 JUMPI PUSH1 0x0 DUP1 REVERT JUMPDEST POP PUSH2 0x15F PUSH2 0x690 JUMP JUMPDEST PUSH1 0x40 MLOAD PUSH2 0x16C SWAP2 SWAP1 PUSH2 0xA33 JUMP JUMPDEST PUSH1 0x40 MLOAD DUP1 SWAP2 SUB SWAP1 RETURN JUMPDEST CALLVALUE DUP1 ISZERO PUSH2 0x181 JUMPI PUSH1 0x0 DUP1 REVERT JUMPDEST POP PUSH2 0x18A PUSH2 0x71E JUMP JUMPDEST PUSH1 0x40 MLOAD PUSH2 0x197 SWAP2 SWAP1 PUSH2 0x948 JUMP JUMPDEST PUSH1 0x40 MLOAD DUP1 SWAP2 SUB SWAP1 RETURN JUMPDEST PUSH2 0x1A8 PUSH2 0x765 JUMP JUMPDEST STOP JUMPDEST CALLVALUE DUP1 ISZERO PUSH2 0x1B6 JUMPI PUSH1 0x0 DUP1 REVERT JUMPDEST POP PUSH2 0x1D1 PUSH1 0x4 DUP1 CALLDATASIZE SUB DUP2 ADD SWAP1 PUSH2 0x1CC SWAP2 SWAP1 PUSH2 0x8B3 JUMP JUMPDEST PUSH2 0x7DD JUMP JUMPDEST PUSH1 0x40 MLOAD PUSH2 0x1DE SWAP2 SWAP1 PUSH2 0xA64 JUMP JUMPDEST PUSH1 0x40 MLOAD DUP1 SWAP2 SUB SWAP1 RETURN JUMPDEST PUSH1 0x0 JUMPDEST PUSH1 0x1 DUP1 SLOAD SWAP1 POP DUP2 LT ISZERO PUSH2 0x28D JUMPI PUSH1 0x0 PUSH1 0x2 PUSH1 0x0 PUSH1 0x1 DUP5 DUP2 SLOAD DUP2 LT PUSH2 0x211 JUMPI PUSH2 0x210 PUSH2 0xA7F JUMP JUMPDEST JUMPDEST SWAP1 PUSH1 0x0 MSTORE PUSH1 0x20 PUSH1 0x0 KECCAK256 ADD PUSH1 0x0 SWAP1 SLOAD SWAP1 PUSH2 0x100 EXP SWAP1 DIV PUSH20 0xFFFFFFFFFFFFFFFFFFFFFFFFFFFFFFFFFFFFFFFF AND PUSH20 0xFFFFFFFFFFFFFFFFFFFFFFFFFFFFFFFFFFFFFFFF AND PUSH20 0xFFFFFFFFFFFFFFFFFFFFFFFFFFFFFFFFFFFFFFFF AND DUP2 MSTORE PUSH1 0x20 ADD SWAP1 DUP2 MSTORE PUSH1 0x20 ADD PUSH1 0x0 KECCAK256 DUP2 SWAP1 SSTORE POP DUP1 DUP1 PUSH2 0x285 SWAP1 PUSH2 0xADD JUMP JUMPDEST SWAP2 POP POP PUSH2 0x1EA JUMP JUMPDEST POP JUMP JUMPDEST PUSH1 0x0 DUP1 SLOAD SWAP1 PUSH2 0x100 EXP SWAP1 DIV PUSH20 0xFFFFFFFFFFFFFFFFFFFFFFFFFFFFFFFFFFFFFFFF AND DUP2 JUMP JUMPDEST PUSH1 0x0 PUSH1 0x2 PUSH1 0x0 CALLER PUSH20 0xFFFFFFFFFFFFFFFFFFFFFFFFFFFFFFFFFFFFFFFF AND PUSH20 0xFFFFFFFFFFFFFFFFFFFFFFFFFFFFFFFFFFFFFFFF AND DUP2 MSTORE PUSH1 0x20 ADD SWAP1 DUP2 MSTORE PUSH1 0x20 ADD PUSH1 0x0 KECCAK256 SLOAD EQ DUP1 PUSH2 0x340 JUMPI POP DUP1 PUSH1 0x2 PUSH1 0x0 CALLER PUSH20 0xFFFFFFFFFFFFFFFFFFFFFFFFFFFFFFFFFFFFFFFF AND PUSH20 0xFFFFFFFFFFFFFFFFFFFFFFFFFFFFFFFFFFFFFFFF AND DUP2 MSTORE PUSH1 0x20 ADD SWAP1 DUP2 MSTORE PUSH1 0x20 ADD PUSH1 0x0 KECCAK256 SLOAD LT JUMPDEST ISZERO PUSH2 0x38E JUMPI DUP1 PUSH1 0x2 PUSH1 0x0 CALLER PUSH20 0xFFFFFFFFFFFFFFFFFFFFFFFFFFFFFFFFFFFFFFFF AND PUSH20 0xFFFFFFFFFFFFFFFFFFFFFFFFFFFFFFFFFFFFFFFF AND DUP2 MSTORE PUSH1 0x20 ADD SWAP1 DUP2 MSTORE PUSH1 0x20 ADD PUSH1 0x0 KECCAK256 DUP2 SWAP1 SSTORE POP PUSH2 0x459 JUMP JUMPDEST DUP1 PUSH1 0x2 PUSH1 0x0 CALLER PUSH20 0xFFFFFFFFFFFFFFFFFFFFFFFFFFFFFFFFFFFFFFFF AND PUSH20 0xFFFFFFFFFFFFFFFFFFFFFFFFFFFFFFFFFFFFFFFF AND DUP2 MSTORE PUSH1 0x20 ADD SWAP1 DUP2 MSTORE PUSH1 0x20 ADD PUSH1 0x0 KECCAK256 SLOAD LT PUSH2 0x458 JUMPI PUSH1 0x2 PUSH1 0x0 CALLER PUSH20 0xFFFFFFFFFFFFFFFFFFFFFFFFFFFFFFFFFFFFFFFF AND PUSH20 0xFFFFFFFFFFFFFFFFFFFFFFFFFFFFFFFFFFFFFFFF AND DUP2 MSTORE PUSH1 0x20 ADD SWAP1 DUP2 MSTORE PUSH1 0x20 ADD PUSH1 0x0 KECCAK256 SLOAD PUSH1 0x2 PUSH1 0x0 CALLER PUSH20 0xFFFFFFFFFFFFFFFFFFFFFFFFFFFFFFFFFFFFFFFF AND PUSH20 0xFFFFFFFFFFFFFFFFFFFFFFFFFFFFFFFFFFFFFFFF AND DUP2 MSTORE PUSH1 0x20 ADD SWAP1 DUP2 MSTORE PUSH1 0x20 ADD PUSH1 0x0 KECCAK256 DUP2 SWAP1 SSTORE POP JUMPDEST JUMPDEST POP JUMP JUMPDEST PUSH1 0x0 DUP1 SLOAD SWAP1 PUSH2 0x100 EXP SWAP1 DIV PUSH20 0xFFFFFFFFFFFFFFFFFFFFFFFFFFFFFFFFFFFFFFFF AND PUSH20 0xFFFFFFFFFFFFFFFFFFFFFFFFFFFFFFFFFFFFFFFF AND CALLER PUSH20 0xFFFFFFFFFFFFFFFFFFFFFFFFFFFFFFFFFFFFFFFF AND EQ PUSH2 0x4B4 JUMPI PUSH1 0x0 DUP1 REVERT JUMPDEST PUSH1 0x0 DUP1 DUP1 PUSH1 0x0 SWAP1 POP JUMPDEST PUSH1 0x1 DUP1 SLOAD SWAP1 POP DUP2 LT ISZERO PUSH2 0x624 JUMPI DUP3 PUSH1 0x2 PUSH1 0x0 PUSH1 0x1 DUP5 DUP2 SLOAD DUP2 LT PUSH2 0x4E3 JUMPI PUSH2 0x4E2 PUSH2 0xA7F JUMP JUMPDEST JUMPDEST SWAP1 PUSH1 0x0 MSTORE PUSH1 0x20 PUSH1 0x0 KECCAK256 ADD PUSH1 0x0 SWAP1 SLOAD SWAP1 PUSH2 0x100 EXP SWAP1 DIV PUSH20 0xFFFFFFFFFFFFFFFFFFFFFFFFFFFFFFFFFFFFFFFF AND PUSH20 0xFFFFFFFFFFFFFFFFFFFFFFFFFFFFFFFFFFFFFFFF AND PUSH20 0xFFFFFFFFFFFFFFFFFFFFFFFFFFFFFFFFFFFFFFFF AND DUP2 MSTORE PUSH1 0x20 ADD SWAP1 DUP2 MSTORE PUSH1 0x20 ADD PUSH1 0x0 KECCAK256 SLOAD GT ISZERO PUSH2 0x611 JUMPI PUSH1 0x2 PUSH1 0x0 PUSH1 0x1 DUP4 DUP2 SLOAD DUP2 LT PUSH2 0x567 JUMPI PUSH2 0x566 PUSH2 0xA7F JUMP JUMPDEST JUMPDEST SWAP1 PUSH1 0x0 MSTORE PUSH1 0x20 PUSH1 0x0 KECCAK256 ADD PUSH1 0x0 SWAP1 SLOAD SWAP1 PUSH2 0x100 EXP SWAP1 DIV PUSH20 0xFFFFFFFFFFFFFFFFFFFFFFFFFFFFFFFFFFFFFFFF AND PUSH20 0xFFFFFFFFFFFFFFFFFFFFFFFFFFFFFFFFFFFFFFFF AND PUSH20 0xFFFFFFFFFFFFFFFFFFFFFFFFFFFFFFFFFFFFFFFF AND DUP2 MSTORE PUSH1 0x20 ADD SWAP1 DUP2 MSTORE PUSH1 0x20 ADD PUSH1 0x0 KECCAK256 SLOAD SWAP3 POP PUSH1 0x1 DUP2 DUP2 SLOAD DUP2 LT PUSH2 0x5E3 JUMPI PUSH2 0x5E2 PUSH2 0xA7F JUMP JUMPDEST JUMPDEST SWAP1 PUSH1 0x0 MSTORE PUSH1 0x20 PUSH1 0x0 KECCAK256 ADD PUSH1 0x0 SWAP1 SLOAD SWAP1 PUSH2 0x100 EXP SWAP1 DIV PUSH20 0xFFFFFFFFFFFFFFFFFFFFFFFFFFFFFFFFFFFFFFFF AND SWAP2 POP JUMPDEST DUP1 DUP1 PUSH2 0x61C SWAP1 PUSH2 0xADD JUMP JUMPDEST SWAP2 POP POP PUSH2 0x4BD JUMP JUMPDEST POP DUP1 PUSH20 0xFFFFFFFFFFFFFFFFFFFFFFFFFFFFFFFFFFFFFFFF AND PUSH2 0x8FC SELFBALANCE SWAP1 DUP2 ISZERO MUL SWAP1 PUSH1 0x40 MLOAD PUSH1 0x0 PUSH1 0x40 MLOAD DUP1 DUP4 SUB DUP2 DUP6 DUP9 DUP9 CALL SWAP4 POP POP POP POP ISZERO DUP1 ISZERO PUSH2 0x66B JUMPI RETURNDATASIZE PUSH1 0x0 DUP1 RETURNDATACOPY RETURNDATASIZE PUSH1 0x0 REVERT JUMPDEST POP PUSH2 0x674 PUSH2 0x1E7 JUMP JUMPDEST POP POP JUMP JUMPDEST PUSH1 0x2 PUSH1 0x20 MSTORE DUP1 PUSH1 0x0 MSTORE PUSH1 0x40 PUSH1 0x0 KECCAK256 PUSH1 0x0 SWAP2 POP SWAP1 POP SLOAD DUP2 JUMP JUMPDEST PUSH1 0x60 PUSH1 0x1 DUP1 SLOAD DUP1 PUSH1 0x20 MUL PUSH1 0x20 ADD PUSH1 0x40 MLOAD SWAP1 DUP2 ADD PUSH1 0x40 MSTORE DUP1 SWAP3 SWAP2 SWAP1 DUP2 DUP2 MSTORE PUSH1 0x20 ADD DUP3 DUP1 SLOAD DUP1 ISZERO PUSH2 0x714 JUMPI PUSH1 0x20 MUL DUP3 ADD SWAP2 SWAP1 PUSH1 0x0 MSTORE PUSH1 0x20 PUSH1 0x0 KECCAK256 SWAP1 JUMPDEST DUP2 PUSH1 0x0 SWAP1 SLOAD SWAP1 PUSH2 0x100 EXP SWAP1 DIV PUSH20 0xFFFFFFFFFFFFFFFFFFFFFFFFFFFFFFFFFFFFFFFF AND PUSH20 0xFFFFFFFFFFFFFFFFFFFFFFFFFFFFFFFFFFFFFFFF AND DUP2 MSTORE PUSH1 0x20 ADD SWAP1 PUSH1 0x1 ADD SWAP1 DUP1 DUP4 GT PUSH2 0x6CA JUMPI JUMPDEST POP POP POP POP POP SWAP1 POP SWAP1 JUMP JUMPDEST PUSH1 0x0 PUSH1 0x2 PUSH1 0x0 CALLER PUSH20 0xFFFFFFFFFFFFFFFFFFFFFFFFFFFFFFFFFFFFFFFF AND PUSH20 0xFFFFFFFFFFFFFFFFFFFFFFFFFFFFFFFFFFFFFFFF AND DUP2 MSTORE PUSH1 0x20 ADD SWAP1 DUP2 MSTORE PUSH1 0x20 ADD PUSH1 0x0 KECCAK256 SLOAD SWAP1 POP SWAP1 JUMP JUMPDEST PUSH7 0x2386F26FC10000 CALLVALUE GT PUSH2 0x778 JUMPI PUSH1 0x0 DUP1 REVERT JUMPDEST PUSH1 0x1 CALLER SWAP1 DUP1 PUSH1 0x1 DUP2 SLOAD ADD DUP1 DUP3 SSTORE DUP1 SWAP2 POP POP PUSH1 0x1 SWAP1 SUB SWAP1 PUSH1 0x0 MSTORE PUSH1 0x20 PUSH1 0x0 KECCAK256 ADD PUSH1 0x0 SWAP1 SWAP2 SWAP1 SWAP2 SWAP1 SWAP2 PUSH2 0x100 EXP DUP2 SLOAD DUP2 PUSH20 0xFFFFFFFFFFFFFFFFFFFFFFFFFFFFFFFFFFFFFFFF MUL NOT AND SWAP1 DUP4 PUSH20 0xFFFFFFFFFFFFFFFFFFFFFFFFFFFFFFFFFFFFFFFF AND MUL OR SWAP1 SSTORE POP JUMP JUMPDEST PUSH1 0x1 DUP2 DUP2 SLOAD DUP2 LT PUSH2 0x7ED JUMPI PUSH1 0x0 DUP1 REVERT JUMPDEST SWAP1 PUSH1 0x0 MSTORE PUSH1 0x20 PUSH1 0x0 KECCAK256 ADD PUSH1 0x0 SWAP2 POP SLOAD SWAP1 PUSH2 0x100 EXP SWAP1 DIV PUSH20 0xFFFFFFFFFFFFFFFFFFFFFFFFFFFFFFFFFFFFFFFF AND DUP2 JUMP JUMPDEST PUSH1 0x0 PUSH20 0xFFFFFFFFFFFFFFFFFFFFFFFFFFFFFFFFFFFFFFFF DUP3 AND SWAP1 POP SWAP2 SWAP1 POP JUMP JUMPDEST PUSH1 0x0 PUSH2 0x847 DUP3 PUSH2 0x81C JUMP JUMPDEST SWAP1 POP SWAP2 SWAP1 POP JUMP JUMPDEST PUSH2 0x857 DUP2 PUSH2 0x83C JUMP JUMPDEST DUP3 MSTORE POP POP JUMP JUMPDEST PUSH1 0x0 PUSH1 0x20 DUP3 ADD SWAP1 POP PUSH2 0x872 PUSH1 0x0 DUP4 ADD DUP5 PUSH2 0x84E JUMP JUMPDEST SWAP3 SWAP2 POP POP JUMP JUMPDEST PUSH1 0x0 DUP1 REVERT JUMPDEST PUSH1 0x0 DUP2 SWAP1 POP SWAP2 SWAP1 POP JUMP JUMPDEST PUSH2 0x890 DUP2 PUSH2 0x87D JUMP JUMPDEST DUP2 EQ PUSH2 0x89B JUMPI PUSH1 0x0 DUP1 REVERT JUMPDEST POP JUMP JUMPDEST PUSH1 0x0 DUP2 CALLDATALOAD SWAP1 POP PUSH2 0x8AD DUP2 PUSH2 0x887 JUMP JUMPDEST SWAP3 SWAP2 POP POP JUMP JUMPDEST PUSH1 0x0 PUSH1 0x20 DUP3 DUP5 SUB SLT ISZERO PUSH2 0x8C9 JUMPI PUSH2 0x8C8 PUSH2 0x878 JUMP JUMPDEST JUMPDEST PUSH1 0x0 PUSH2 0x8D7 DUP5 DUP3 DUP6 ADD PUSH2 0x89E JUMP JUMPDEST SWAP2 POP POP SWAP3 SWAP2 POP POP JUMP JUMPDEST PUSH2 0x8E9 DUP2 PUSH2 0x83C JUMP JUMPDEST DUP2 EQ PUSH2 0x8F4 JUMPI PUSH1 0x0 DUP1 REVERT JUMPDEST POP JUMP JUMPDEST PUSH1 0x0 DUP2 CALLDATALOAD SWAP1 POP PUSH2 0x906 DUP2 PUSH2 0x8E0 JUMP JUMPDEST SWAP3 SWAP2 POP POP JUMP JUMPDEST PUSH1 0x0 PUSH1 0x20 DUP3 DUP5 SUB SLT ISZERO PUSH2 0x922 JUMPI PUSH2 0x921 PUSH2 0x878 JUMP JUMPDEST JUMPDEST PUSH1 0x0 PUSH2 0x930 DUP5 DUP3 DUP6 ADD PUSH2 0x8F7 JUMP JUMPDEST SWAP2 POP POP SWAP3 SWAP2 POP POP JUMP JUMPDEST PUSH2 0x942 DUP2 PUSH2 0x87D JUMP JUMPDEST DUP3 MSTORE POP POP JUMP JUMPDEST PUSH1 0x0 PUSH1 0x20 DUP3 ADD SWAP1 POP PUSH2 0x95D PUSH1 0x0 DUP4 ADD DUP5 PUSH2 0x939 JUMP JUMPDEST SWAP3 SWAP2 POP POP JUMP JUMPDEST PUSH1 0x0 DUP2 MLOAD SWAP1 POP SWAP2 SWAP1 POP JUMP JUMPDEST PUSH1 0x0 DUP3 DUP3 MSTORE PUSH1 0x20 DUP3 ADD SWAP1 POP SWAP3 SWAP2 POP POP JUMP JUMPDEST PUSH1 0x0 DUP2 SWAP1 POP PUSH1 0x20 DUP3 ADD SWAP1 POP SWAP2 SWAP1 POP JUMP JUMPDEST PUSH1 0x0 PUSH2 0x99A DUP3 PUSH2 0x81C JUMP JUMPDEST SWAP1 POP SWAP2 SWAP1 POP JUMP JUMPDEST PUSH2 0x9AA DUP2 PUSH2 0x98F JUMP JUMPDEST DUP3 MSTORE POP POP JUMP JUMPDEST PUSH1 0x0 PUSH2 0x9BC DUP4 DUP4 PUSH2 0x9A1 JUMP JUMPDEST PUSH1 0x20 DUP4 ADD SWAP1 POP SWAP3 SWAP2 POP POP JUMP JUMPDEST PUSH1 0x0 PUSH1 0x20 DUP3 ADD SWAP1 POP SWAP2 SWAP1 POP JUMP JUMPDEST PUSH1 0x0 PUSH2 0x9E0 DUP3 PUSH2 0x963 JUMP JUMPDEST PUSH2 0x9EA DUP2 DUP6 PUSH2 0x96E JUMP JUMPDEST SWAP4 POP PUSH2 0x9F5 DUP4 PUSH2 0x97F JUMP JUMPDEST DUP1 PUSH1 0x0 JUMPDEST DUP4 DUP2 LT ISZERO PUSH2 0xA26 JUMPI DUP2 MLOAD PUSH2 0xA0D DUP9 DUP3 PUSH2 0x9B0 JUMP JUMPDEST SWAP8 POP PUSH2 0xA18 DUP4 PUSH2 0x9C8 JUMP JUMPDEST SWAP3 POP POP PUSH1 0x1 DUP2 ADD SWAP1 POP PUSH2 0x9F9 JUMP JUMPDEST POP DUP6 SWAP4 POP POP POP POP SWAP3 SWAP2 POP POP JUMP JUMPDEST PUSH1 0x0 PUSH1 0x20 DUP3 ADD SWAP1 POP DUP2 DUP2 SUB PUSH1 0x0 DUP4 ADD MSTORE PUSH2 0xA4D DUP2 DUP5 PUSH2 0x9D5 JUMP JUMPDEST SWAP1 POP SWAP3 SWAP2 POP POP JUMP JUMPDEST PUSH2 0xA5E DUP2 PUSH2 0x98F JUMP JUMPDEST DUP3 MSTORE POP POP JUMP JUMPDEST PUSH1 0x0 PUSH1 0x20 DUP3 ADD SWAP1 POP PUSH2 0xA79 PUSH1 0x0 DUP4 ADD DUP5 PUSH2 0xA55 JUMP JUMPDEST SWAP3 SWAP2 POP POP JUMP JUMPDEST PUSH32 0x4E487B7100000000000000000000000000000000000000000000000000000000 PUSH1 0x0 MSTORE PUSH1 0x32 PUSH1 0x4 MSTORE PUSH1 0x24 PUSH1 0x0 REVERT JUMPDEST PUSH32 0x4E487B7100000000000000000000000000000000000000000000000000000000 PUSH1 0x0 MSTORE PUSH1 0x11 PUSH1 0x4 MSTORE PUSH1 0x24 PUSH1 0x0 REVERT JUMPDEST PUSH1 0x0 PUSH2 0xAE8 DUP3 PUSH2 0x87D JUMP JUMPDEST SWAP2 POP PUSH32 0xFFFFFFFFFFFFFFFFFFFFFFFFFFFFFFFFFFFFFFFFFFFFFFFFFFFFFFFFFFFFFFFF DUP3 EQ ISZERO PUSH2 0xB1B JUMPI PUSH2 0xB1A PUSH2 0xAAE JUMP JUMPDEST JUMPDEST PUSH1 0x1 DUP3 ADD SWAP1 POP SWAP2 SWAP1 POP JUMP INVALID LOG2 PUSH5 0x6970667358 0x22 SLT KECCAK256 0xEB 0xB6 0xEC STOP 0x4C JUMPI SELFBALANCE GAS SWAP15 0xCC 0xAE 0x2C 0xBD 0xDF 0x1E CALLDATACOPY PUSH31 0x1AE9C22D9D1529B71E498A0E7B596064736F6C634300080900330000000000 "},"gasEstimates":{"creation":{"codeDepositCost":"581600","executionCost":"24879","totalCost":"606479"},"external":{"enter()":"48786","getPlayerScore()":"2570","getPlayers()":"infinite","manager()":"2534","pickWinner()":"infinite","playerScores(address)":"2814","players(uint256)":"5044","resetScores()":"infinite","saveBestScore(uint256)":"31488"}},"methodIdentifiers":{"enter()":"e97dcb62","getPlayerScore()":"dc21d020","getPlayers()":"8b5b9ccc","manager()":"481c6a75","pickWinner()":"5d495aea","playerScores(address)":"62550ae1","players(uint256)":"f71d96cb","resetScores()":"1aa87659","saveBestScore(uint256)":"547bf2d3"}},"storageLayout":{"storage":[{"astId":3,"contract":"Flappy.sol:Flappy","label":"manager","offset":0,"slot":"0","type":"t_address"},{"astId":6,"contract":"Flappy.sol:Flappy","label":"players","offset":0,"slot":"1","type":"t_array(t_address_payable)dyn_storage"},{"astId":10,"contract":"Flappy.sol:Flappy","label":"playerScores","offset":0,"slot":"2","type":"t_mapping(t_address,t_uint256)"}],"types":{"t_address":{"encoding":"inplace","label":"address","numberOfBytes":"20"},"t_address_payable":{"encoding":"inplace","label":"address payable","numberOfBytes":"20"},"t_array(t_address_payable)dyn_storage":{"base":"t_address_payable","encoding":"dynamic_array","label":"address payable[]","numberOfBytes":"32"},"t_mapping(t_address,t_uint256)":{"encoding":"mapping","key":"t_address","label":"mapping(address => uint256)","numberOfBytes":"32","value":"t_uint256"},"t_uint256":{"encoding":"inplace","label":"uint256","numberOfBytes":"32"}}},"userdoc":{"kind":"user","methods":{},"version":1}}